{
  "_format": "hh-sol-artifact-1",
  "contractName": "Exchange",
  "sourceName": "contracts/Exchange.sol",
  "abi": [
    {
      "inputs": [
        {
          "internalType": "address",
          "name": "_CryptoDevtoken",
          "type": "address"
        }
      ],
      "stateMutability": "nonpayable",
      "type": "constructor"
    },
    {
      "anonymous": false,
      "inputs": [
        {
          "indexed": true,
          "internalType": "address",
          "name": "owner",
          "type": "address"
        },
        {
          "indexed": true,
          "internalType": "address",
          "name": "spender",
          "type": "address"
        },
        {
          "indexed": false,
          "internalType": "uint256",
          "name": "value",
          "type": "uint256"
        }
      ],
      "name": "Approval",
      "type": "event"
    },
    {
      "anonymous": false,
      "inputs": [
        {
          "indexed": true,
          "internalType": "address",
          "name": "from",
          "type": "address"
        },
        {
          "indexed": true,
          "internalType": "address",
          "name": "to",
          "type": "address"
        },
        {
          "indexed": false,
          "internalType": "uint256",
          "name": "value",
          "type": "uint256"
        }
      ],
      "name": "Transfer",
      "type": "event"
    },
    {
      "inputs": [
        {
          "internalType": "uint256",
          "name": "_amount",
          "type": "uint256"
        }
      ],
      "name": "addLiquidity",
      "outputs": [
        {
          "internalType": "uint256",
          "name": "",
          "type": "uint256"
        }
      ],
      "stateMutability": "payable",
      "type": "function"
    },
    {
      "inputs": [
        {
          "internalType": "address",
          "name": "owner",
          "type": "address"
        },
        {
          "internalType": "address",
          "name": "spender",
          "type": "address"
        }
      ],
      "name": "allowance",
      "outputs": [
        {
          "internalType": "uint256",
          "name": "",
          "type": "uint256"
        }
      ],
      "stateMutability": "view",
      "type": "function"
    },
    {
      "inputs": [
        {
          "internalType": "address",
          "name": "spender",
          "type": "address"
        },
        {
          "internalType": "uint256",
          "name": "amount",
          "type": "uint256"
        }
      ],
      "name": "approve",
      "outputs": [
        {
          "internalType": "bool",
          "name": "",
          "type": "bool"
        }
      ],
      "stateMutability": "nonpayable",
      "type": "function"
    },
    {
      "inputs": [
        {
          "internalType": "address",
          "name": "account",
          "type": "address"
        }
      ],
      "name": "balanceOf",
      "outputs": [
        {
          "internalType": "uint256",
          "name": "",
          "type": "uint256"
        }
      ],
      "stateMutability": "view",
      "type": "function"
    },
    {
      "inputs": [],
      "name": "cryptoDevTokenAddress",
      "outputs": [
        {
          "internalType": "address",
          "name": "",
          "type": "address"
        }
      ],
      "stateMutability": "view",
      "type": "function"
    },
    {
      "inputs": [
        {
          "internalType": "uint256",
          "name": "_tokensSold",
          "type": "uint256"
        },
        {
          "internalType": "uint256",
          "name": "_minEth",
          "type": "uint256"
        }
      ],
      "name": "cryptoDevTokenToEth",
      "outputs": [],
      "stateMutability": "nonpayable",
      "type": "function"
    },
    {
      "inputs": [],
      "name": "decimals",
      "outputs": [
        {
          "internalType": "uint8",
          "name": "",
          "type": "uint8"
        }
      ],
      "stateMutability": "view",
      "type": "function"
    },
    {
      "inputs": [
        {
          "internalType": "address",
          "name": "spender",
          "type": "address"
        },
        {
          "internalType": "uint256",
          "name": "subtractedValue",
          "type": "uint256"
        }
      ],
      "name": "decreaseAllowance",
      "outputs": [
        {
          "internalType": "bool",
          "name": "",
          "type": "bool"
        }
      ],
      "stateMutability": "nonpayable",
      "type": "function"
    },
    {
      "inputs": [
        {
          "internalType": "uint256",
          "name": "_minTokens",
          "type": "uint256"
        }
      ],
      "name": "ethToCryptoDevToken",
      "outputs": [],
      "stateMutability": "payable",
      "type": "function"
    },
    {
      "inputs": [
        {
          "internalType": "uint256",
          "name": "inputAmount",
          "type": "uint256"
        },
        {
          "internalType": "uint256",
          "name": "inputReserve",
          "type": "uint256"
        },
        {
          "internalType": "uint256",
          "name": "outputReserve",
          "type": "uint256"
        }
      ],
      "name": "getAmountOfTokens",
      "outputs": [
        {
          "internalType": "uint256",
          "name": "",
          "type": "uint256"
        }
      ],
      "stateMutability": "pure",
      "type": "function"
    },
    {
      "inputs": [],
      "name": "getReserve",
      "outputs": [
        {
          "internalType": "uint256",
          "name": "",
          "type": "uint256"
        }
      ],
      "stateMutability": "view",
      "type": "function"
    },
    {
      "inputs": [
        {
          "internalType": "address",
          "name": "spender",
          "type": "address"
        },
        {
          "internalType": "uint256",
          "name": "addedValue",
          "type": "uint256"
        }
      ],
      "name": "increaseAllowance",
      "outputs": [
        {
          "internalType": "bool",
          "name": "",
          "type": "bool"
        }
      ],
      "stateMutability": "nonpayable",
      "type": "function"
    },
    {
      "inputs": [],
      "name": "name",
      "outputs": [
        {
          "internalType": "string",
          "name": "",
          "type": "string"
        }
      ],
      "stateMutability": "view",
      "type": "function"
    },
    {
      "inputs": [
        {
          "internalType": "uint256",
          "name": "_amount",
          "type": "uint256"
        }
      ],
      "name": "removeLiquidity",
      "outputs": [
        {
          "internalType": "uint256",
          "name": "",
          "type": "uint256"
        },
        {
          "internalType": "uint256",
          "name": "",
          "type": "uint256"
        }
      ],
      "stateMutability": "nonpayable",
      "type": "function"
    },
    {
      "inputs": [],
      "name": "symbol",
      "outputs": [
        {
          "internalType": "string",
          "name": "",
          "type": "string"
        }
      ],
      "stateMutability": "view",
      "type": "function"
    },
    {
      "inputs": [],
      "name": "totalSupply",
      "outputs": [
        {
          "internalType": "uint256",
          "name": "",
          "type": "uint256"
        }
      ],
      "stateMutability": "view",
      "type": "function"
    },
    {
      "inputs": [
        {
          "internalType": "address",
          "name": "to",
          "type": "address"
        },
        {
          "internalType": "uint256",
          "name": "amount",
          "type": "uint256"
        }
      ],
      "name": "transfer",
      "outputs": [
        {
          "internalType": "bool",
          "name": "",
          "type": "bool"
        }
      ],
      "stateMutability": "nonpayable",
      "type": "function"
    },
    {
      "inputs": [
        {
          "internalType": "address",
          "name": "from",
          "type": "address"
        },
        {
          "internalType": "address",
          "name": "to",
          "type": "address"
        },
        {
          "internalType": "uint256",
          "name": "amount",
          "type": "uint256"
        }
      ],
      "name": "transferFrom",
      "outputs": [
        {
          "internalType": "bool",
          "name": "",
          "type": "bool"
        }
      ],
      "stateMutability": "nonpayable",
      "type": "function"
    }
  ],
  "bytecode": "0x60806040523480156200001157600080fd5b5060405162002ac338038062002ac3833981810160405281019062000037919062000259565b6040518060400160405280601281526020017f43727970746f446576204c5020546f6b656e00000000000000000000000000008152506040518060400160405280600481526020017f43444c50000000000000000000000000000000000000000000000000000000008152508160039080519060200190620000bb92919062000192565b508060049080519060200190620000d492919062000192565b505050600073ffffffffffffffffffffffffffffffffffffffff168173ffffffffffffffffffffffffffffffffffffffff1614156200014a576040517f08c379a00000000000000000000000000000000000000000000000000000000081526004016200014190620002ac565b60405180910390fd5b80600560006101000a81548173ffffffffffffffffffffffffffffffffffffffff021916908373ffffffffffffffffffffffffffffffffffffffff16021790555050620003e1565b828054620001a09062000313565b90600052602060002090601f016020900481019282620001c4576000855562000210565b82601f10620001df57805160ff191683800117855562000210565b8280016001018555821562000210579182015b828111156200020f578251825591602001919060010190620001f2565b5b5090506200021f919062000223565b5090565b5b808211156200023e57600081600090555060010162000224565b5090565b6000815190506200025381620003c7565b92915050565b6000602082840312156200026c57600080fd5b60006200027c8482850162000242565b91505092915050565b600062000294602683620002ce565b9150620002a18262000378565b604082019050919050565b60006020820190508181036000830152620002c78162000285565b9050919050565b600082825260208201905092915050565b6000620002ec82620002f3565b9050919050565b600073ffffffffffffffffffffffffffffffffffffffff82169050919050565b600060028204905060018216806200032c57607f821691505b6020821081141562000343576200034262000349565b5b50919050565b7f4e487b7100000000000000000000000000000000000000000000000000000000600052602260045260246000fd5b7f546f6b656e2061646472657373207061737365642069732061206e756c6c206160008201527f6464726573730000000000000000000000000000000000000000000000000000602082015250565b620003d281620002df565b8114620003de57600080fd5b50565b6126d280620003f16000396000f3fe6080604052600436106101095760003560e01c806370a08231116100955780639e7a2922116100645780639e7a2922146103ad578063a457c2d7146103d8578063a9059cbb14610415578063dd62ed3e14610452578063f0566bb71461048f57610109565b806370a08231146102ca5780637386479e1461030757806395d89b41146103445780639c8f9f231461036f57610109565b8063313ce567116100dc578063313ce567146101de578063395093511461020957806351c6590a1461024657806359bf5d39146102765780636c25a25a146102a157610109565b806306fdde031461010e578063095ea7b31461013957806318160ddd1461017657806323b872dd146101a1575b600080fd5b34801561011a57600080fd5b506101236104ab565b6040516101309190611dd3565b60405180910390f35b34801561014557600080fd5b50610160600480360381019061015b919061199c565b61053d565b60405161016d9190611db8565b60405180910390f35b34801561018257600080fd5b5061018b610560565b6040516101989190611fb5565b60405180910390f35b3480156101ad57600080fd5b506101c860048036038101906101c3919061194d565b61056a565b6040516101d59190611db8565b60405180910390f35b3480156101ea57600080fd5b506101f3610599565b6040516102009190611ff9565b60405180910390f35b34801561021557600080fd5b50610230600480360381019061022b919061199c565b6105a2565b60405161023d9190611db8565b60405180910390f35b610260600480360381019061025b9190611a01565b61064c565b60405161026d9190611fb5565b60405180910390f35b34801561028257600080fd5b5061028b610869565b6040516102989190611fb5565b60405180910390f35b3480156102ad57600080fd5b506102c860048036038101906102c39190611a53565b61091b565b005b3480156102d657600080fd5b506102f160048036038101906102ec91906118e8565b610a78565b6040516102fe9190611fb5565b60405180910390f35b34801561031357600080fd5b5061032e60048036038101906103299190611a8f565b610ac0565b60405161033b9190611fb5565b60405180910390f35b34801561035057600080fd5b50610359610b65565b6040516103669190611dd3565b60405180910390f35b34801561037b57600080fd5b5061039660048036038101906103919190611a01565b610bf7565b6040516103a4929190611fd0565b60405180910390f35b3480156103b957600080fd5b506103c2610d9b565b6040516103cf9190611d3d565b60405180910390f35b3480156103e457600080fd5b506103ff60048036038101906103fa919061199c565b610dc1565b60405161040c9190611db8565b60405180910390f35b34801561042157600080fd5b5061043c6004803603810190610437919061199c565b610eab565b6040516104499190611db8565b60405180910390f35b34801561045e57600080fd5b5061047960048036038101906104749190611911565b610ece565b6040516104869190611fb5565b60405180910390f35b6104a960048036038101906104a49190611a01565b610f55565b005b6060600380546104ba906121cd565b80601f01602080910402602001604051908101604052809291908181526020018280546104e6906121cd565b80156105335780601f1061050857610100808354040283529160200191610533565b820191906000526020600020905b81548152906001019060200180831161051657829003601f168201915b5050505050905090565b600080610548611073565b905061055581858561107b565b600191505092915050565b6000600254905090565b600080610575611073565b9050610582858285611246565b61058d8585856112d2565b60019150509392505050565b60006012905090565b6000806105ad611073565b9050610641818585600160008673ffffffffffffffffffffffffffffffffffffffff1673ffffffffffffffffffffffffffffffffffffffff16815260200190815260200160002060008973ffffffffffffffffffffffffffffffffffffffff1673ffffffffffffffffffffffffffffffffffffffff1681526020019081526020016000205461063c9190612030565b61107b565b600191505092915050565b6000806000479050600061065e610869565b90506000600560009054906101000a900473ffffffffffffffffffffffffffffffffffffffff1690506000821415610732578073ffffffffffffffffffffffffffffffffffffffff166323b872dd3330896040518463ffffffff1660e01b81526004016106cd93929190611d58565b602060405180830381600087803b1580156106e757600080fd5b505af11580156106fb573d6000803e3d6000fd5b505050506040513d601f19601f8201168201806040525081019061071f91906119d8565b5082935061072d3385611553565b61085d565b600034846107409190612111565b9050600081843461075191906120b7565b61075b9190612086565b9050808810156107a0576040517f08c379a000000000000000000000000000000000000000000000000000000000815260040161079790611e15565b60405180910390fd5b8273ffffffffffffffffffffffffffffffffffffffff166323b872dd3330846040518463ffffffff1660e01b81526004016107dd93929190611d58565b602060405180830381600087803b1580156107f757600080fd5b505af115801561080b573d6000803e3d6000fd5b505050506040513d601f19601f8201168201806040525081019061082f91906119d8565b50813461083a610560565b61084491906120b7565b61084e9190612086565b955061085a3387611553565b50505b83945050505050919050565b6000600560009054906101000a900473ffffffffffffffffffffffffffffffffffffffff1673ffffffffffffffffffffffffffffffffffffffff166370a08231306040518263ffffffff1660e01b81526004016108c69190611d3d565b60206040518083038186803b1580156108de57600080fd5b505afa1580156108f2573d6000803e3d6000fd5b505050506040513d601f19601f820116820180604052508101906109169190611a2a565b905090565b6000610925610869565b90506000610934848347610ac0565b905082811015610979576040517f08c379a000000000000000000000000000000000000000000000000000000000815260040161097090611ef5565b60405180910390fd5b600560009054906101000a900473ffffffffffffffffffffffffffffffffffffffff1673ffffffffffffffffffffffffffffffffffffffff166323b872dd3330876040518463ffffffff1660e01b81526004016109d893929190611d58565b602060405180830381600087803b1580156109f257600080fd5b505af1158015610a06573d6000803e3d6000fd5b505050506040513d601f19601f82011682018060405250810190610a2a91906119d8565b503373ffffffffffffffffffffffffffffffffffffffff166108fc829081150290604051600060405180830381858888f19350505050158015610a71573d6000803e3d6000fd5b5050505050565b60008060008373ffffffffffffffffffffffffffffffffffffffff1673ffffffffffffffffffffffffffffffffffffffff168152602001908152602001600020549050919050565b60008083118015610ad15750600082115b610b10576040517f08c379a0000000000000000000000000000000000000000000000000000000008152600401610b0790611f55565b60405180910390fd5b6000606385610b1f91906120b7565b905060008382610b2f91906120b7565b9050600082606487610b4191906120b7565b610b4b9190612030565b90508082610b599190612086565b93505050509392505050565b606060048054610b74906121cd565b80601f0160208091040260200160405190810160405280929190818152602001828054610ba0906121cd565b8015610bed5780601f10610bc257610100808354040283529160200191610bed565b820191906000526020600020905b815481529060010190602001808311610bd057829003601f168201915b5050505050905090565b60008060008311610c3d576040517f08c379a0000000000000000000000000000000000000000000000000000000008152600401610c3490611eb5565b60405180910390fd5b60004790506000610c4c610560565b90506000818684610c5d91906120b7565b610c679190612086565b905060008287610c75610869565b610c7f91906120b7565b610c899190612086565b9050610c9533886116b3565b3373ffffffffffffffffffffffffffffffffffffffff166108fc839081150290604051600060405180830381858888f19350505050158015610cdb573d6000803e3d6000fd5b50600560009054906101000a900473ffffffffffffffffffffffffffffffffffffffff1673ffffffffffffffffffffffffffffffffffffffff1663a9059cbb33836040518363ffffffff1660e01b8152600401610d39929190611d8f565b602060405180830381600087803b158015610d5357600080fd5b505af1158015610d67573d6000803e3d6000fd5b505050506040513d601f19601f82011682018060405250810190610d8b91906119d8565b5081819550955050505050915091565b600560009054906101000a900473ffffffffffffffffffffffffffffffffffffffff1681565b600080610dcc611073565b90506000600160008373ffffffffffffffffffffffffffffffffffffffff1673ffffffffffffffffffffffffffffffffffffffff16815260200190815260200160002060008673ffffffffffffffffffffffffffffffffffffffff1673ffffffffffffffffffffffffffffffffffffffff16815260200190815260200160002054905083811015610e92576040517f08c379a0000000000000000000000000000000000000000000000000000000008152600401610e8990611f75565b60405180910390fd5b610e9f828686840361107b565b60019250505092915050565b600080610eb6611073565b9050610ec38185856112d2565b600191505092915050565b6000600160008473ffffffffffffffffffffffffffffffffffffffff1673ffffffffffffffffffffffffffffffffffffffff16815260200190815260200160002060008373ffffffffffffffffffffffffffffffffffffffff1673ffffffffffffffffffffffffffffffffffffffff16815260200190815260200160002054905092915050565b6000610f5f610869565b90506000610f79343447610f739190612111565b84610ac0565b905082811015610fbe576040517f08c379a0000000000000000000000000000000000000000000000000000000008152600401610fb590611ef5565b60405180910390fd5b600560009054906101000a900473ffffffffffffffffffffffffffffffffffffffff1673ffffffffffffffffffffffffffffffffffffffff1663a9059cbb33836040518363ffffffff1660e01b815260040161101b929190611d8f565b602060405180830381600087803b15801561103557600080fd5b505af1158015611049573d6000803e3d6000fd5b505050506040513d601f19601f8201168201806040525081019061106d91906119d8565b50505050565b600033905090565b600073ffffffffffffffffffffffffffffffffffffffff168373ffffffffffffffffffffffffffffffffffffffff1614156110eb576040517f08c379a00000000000000000000000000000000000000000000000000000000081526004016110e290611f35565b60405180910390fd5b600073ffffffffffffffffffffffffffffffffffffffff168273ffffffffffffffffffffffffffffffffffffffff16141561115b576040517f08c379a000000000000000000000000000000000000000000000000000000000815260040161115290611e55565b60405180910390fd5b80600160008573ffffffffffffffffffffffffffffffffffffffff1673ffffffffffffffffffffffffffffffffffffffff16815260200190815260200160002060008473ffffffffffffffffffffffffffffffffffffffff1673ffffffffffffffffffffffffffffffffffffffff168152602001908152602001600020819055508173ffffffffffffffffffffffffffffffffffffffff168373ffffffffffffffffffffffffffffffffffffffff167f8c5be1e5ebec7d5bd14f71427d1e84f3dd0314c0f7b2291e5b200ac8c7c3b925836040516112399190611fb5565b60405180910390a3505050565b60006112528484610ece565b90507fffffffffffffffffffffffffffffffffffffffffffffffffffffffffffffffff81146112cc57818110156112be576040517f08c379a00000000000000000000000000000000000000000000000000000000081526004016112b590611e75565b60405180910390fd5b6112cb848484840361107b565b5b50505050565b600073ffffffffffffffffffffffffffffffffffffffff168373ffffffffffffffffffffffffffffffffffffffff161415611342576040517f08c379a000000000000000000000000000000000000000000000000000000000815260040161133990611f15565b60405180910390fd5b600073ffffffffffffffffffffffffffffffffffffffff168273ffffffffffffffffffffffffffffffffffffffff1614156113b2576040517f08c379a00000000000000000000000000000000000000000000000000000000081526004016113a990611df5565b60405180910390fd5b6113bd83838361188a565b60008060008573ffffffffffffffffffffffffffffffffffffffff1673ffffffffffffffffffffffffffffffffffffffff16815260200190815260200160002054905081811015611443576040517f08c379a000000000000000000000000000000000000000000000000000000000815260040161143a90611e95565b60405180910390fd5b8181036000808673ffffffffffffffffffffffffffffffffffffffff1673ffffffffffffffffffffffffffffffffffffffff16815260200190815260200160002081905550816000808573ffffffffffffffffffffffffffffffffffffffff1673ffffffffffffffffffffffffffffffffffffffff16815260200190815260200160002060008282546114d69190612030565b925050819055508273ffffffffffffffffffffffffffffffffffffffff168473ffffffffffffffffffffffffffffffffffffffff167fddf252ad1be2c89b69c2b068fc378daa952ba7f163c4a11628f55a4df523b3ef8460405161153a9190611fb5565b60405180910390a361154d84848461188f565b50505050565b600073ffffffffffffffffffffffffffffffffffffffff168273ffffffffffffffffffffffffffffffffffffffff1614156115c3576040517f08c379a00000000000000000000000000000000000000000000000000000000081526004016115ba90611f95565b60405180910390fd5b6115cf6000838361188a565b80600260008282546115e19190612030565b92505081905550806000808473ffffffffffffffffffffffffffffffffffffffff1673ffffffffffffffffffffffffffffffffffffffff16815260200190815260200160002060008282546116369190612030565b925050819055508173ffffffffffffffffffffffffffffffffffffffff16600073ffffffffffffffffffffffffffffffffffffffff167fddf252ad1be2c89b69c2b068fc378daa952ba7f163c4a11628f55a4df523b3ef8360405161169b9190611fb5565b60405180910390a36116af6000838361188f565b5050565b600073ffffffffffffffffffffffffffffffffffffffff168273ffffffffffffffffffffffffffffffffffffffff161415611723576040517f08c379a000000000000000000000000000000000000000000000000000000000815260040161171a90611ed5565b60405180910390fd5b61172f8260008361188a565b60008060008473ffffffffffffffffffffffffffffffffffffffff1673ffffffffffffffffffffffffffffffffffffffff168152602001908152602001600020549050818110156117b5576040517f08c379a00000000000000000000000000000000000000000000000000000000081526004016117ac90611e35565b60405180910390fd5b8181036000808573ffffffffffffffffffffffffffffffffffffffff1673ffffffffffffffffffffffffffffffffffffffff16815260200190815260200160002081905550816002600082825461180c9190612111565b92505081905550600073ffffffffffffffffffffffffffffffffffffffff168373ffffffffffffffffffffffffffffffffffffffff167fddf252ad1be2c89b69c2b068fc378daa952ba7f163c4a11628f55a4df523b3ef846040516118719190611fb5565b60405180910390a36118858360008461188f565b505050565b505050565b505050565b6000813590506118a381612657565b92915050565b6000815190506118b88161266e565b92915050565b6000813590506118cd81612685565b92915050565b6000815190506118e281612685565b92915050565b6000602082840312156118fa57600080fd5b600061190884828501611894565b91505092915050565b6000806040838503121561192457600080fd5b600061193285828601611894565b925050602061194385828601611894565b9150509250929050565b60008060006060848603121561196257600080fd5b600061197086828701611894565b935050602061198186828701611894565b9250506040611992868287016118be565b9150509250925092565b600080604083850312156119af57600080fd5b60006119bd85828601611894565b92505060206119ce858286016118be565b9150509250929050565b6000602082840312156119ea57600080fd5b60006119f8848285016118a9565b91505092915050565b600060208284031215611a1357600080fd5b6000611a21848285016118be565b91505092915050565b600060208284031215611a3c57600080fd5b6000611a4a848285016118d3565b91505092915050565b60008060408385031215611a6657600080fd5b6000611a74858286016118be565b9250506020611a85858286016118be565b9150509250929050565b600080600060608486031215611aa457600080fd5b6000611ab2868287016118be565b9350506020611ac3868287016118be565b9250506040611ad4868287016118be565b9150509250925092565b611ae781612145565b82525050565b611af681612157565b82525050565b6000611b0782612014565b611b11818561201f565b9350611b2181856020860161219a565b611b2a8161228c565b840191505092915050565b6000611b4260238361201f565b9150611b4d8261229d565b604082019050919050565b6000611b65603e8361201f565b9150611b70826122ec565b604082019050919050565b6000611b8860228361201f565b9150611b938261233b565b604082019050919050565b6000611bab60228361201f565b9150611bb68261238a565b604082019050919050565b6000611bce601d8361201f565b9150611bd9826123d9565b602082019050919050565b6000611bf160268361201f565b9150611bfc82612402565b604082019050919050565b6000611c1460238361201f565b9150611c1f82612451565b604082019050919050565b6000611c3760218361201f565b9150611c42826124a0565b604082019050919050565b6000611c5a601a8361201f565b9150611c65826124ef565b602082019050919050565b6000611c7d60258361201f565b9150611c8882612518565b604082019050919050565b6000611ca060248361201f565b9150611cab82612567565b604082019050919050565b6000611cc360108361201f565b9150611cce826125b6565b602082019050919050565b6000611ce660258361201f565b9150611cf1826125df565b604082019050919050565b6000611d09601f8361201f565b9150611d148261262e565b602082019050919050565b611d2881612183565b82525050565b611d378161218d565b82525050565b6000602082019050611d526000830184611ade565b92915050565b6000606082019050611d6d6000830186611ade565b611d7a6020830185611ade565b611d876040830184611d1f565b949350505050565b6000604082019050611da46000830185611ade565b611db16020830184611d1f565b9392505050565b6000602082019050611dcd6000830184611aed565b92915050565b60006020820190508181036000830152611ded8184611afc565b905092915050565b60006020820190508181036000830152611e0e81611b35565b9050919050565b60006020820190508181036000830152611e2e81611b58565b9050919050565b60006020820190508181036000830152611e4e81611b7b565b9050919050565b60006020820190508181036000830152611e6e81611b9e565b9050919050565b60006020820190508181036000830152611e8e81611bc1565b9050919050565b60006020820190508181036000830152611eae81611be4565b9050919050565b60006020820190508181036000830152611ece81611c07565b9050919050565b60006020820190508181036000830152611eee81611c2a565b9050919050565b60006020820190508181036000830152611f0e81611c4d565b9050919050565b60006020820190508181036000830152611f2e81611c70565b9050919050565b60006020820190508181036000830152611f4e81611c93565b9050919050565b60006020820190508181036000830152611f6e81611cb6565b9050919050565b60006020820190508181036000830152611f8e81611cd9565b9050919050565b60006020820190508181036000830152611fae81611cfc565b9050919050565b6000602082019050611fca6000830184611d1f565b92915050565b6000604082019050611fe56000830185611d1f565b611ff26020830184611d1f565b9392505050565b600060208201905061200e6000830184611d2e565b92915050565b600081519050919050565b600082825260208201905092915050565b600061203b82612183565b915061204683612183565b9250827fffffffffffffffffffffffffffffffffffffffffffffffffffffffffffffffff0382111561207b5761207a6121ff565b5b828201905092915050565b600061209182612183565b915061209c83612183565b9250826120ac576120ab61222e565b5b828204905092915050565b60006120c282612183565b91506120cd83612183565b9250817fffffffffffffffffffffffffffffffffffffffffffffffffffffffffffffffff0483118215151615612106576121056121ff565b5b828202905092915050565b600061211c82612183565b915061212783612183565b92508282101561213a576121396121ff565b5b828203905092915050565b600061215082612163565b9050919050565b60008115159050919050565b600073ffffffffffffffffffffffffffffffffffffffff82169050919050565b6000819050919050565b600060ff82169050919050565b60005b838110156121b857808201518184015260208101905061219d565b838111156121c7576000848401525b50505050565b600060028204905060018216806121e557607f821691505b602082108114156121f9576121f861225d565b5b50919050565b7f4e487b7100000000000000000000000000000000000000000000000000000000600052601160045260246000fd5b7f4e487b7100000000000000000000000000000000000000000000000000000000600052601260045260246000fd5b7f4e487b7100000000000000000000000000000000000000000000000000000000600052602260045260246000fd5b6000601f19601f8301169050919050565b7f45524332303a207472616e7366657220746f20746865207a65726f206164647260008201527f6573730000000000000000000000000000000000000000000000000000000000602082015250565b7f416d6f756e74206f6620746f6b656e732073656e74206973206c65737320746860008201527f616e20746865206d696e696d756d20746f6b656e732072657175697265640000602082015250565b7f45524332303a206275726e20616d6f756e7420657863656564732062616c616e60008201527f6365000000000000000000000000000000000000000000000000000000000000602082015250565b7f45524332303a20617070726f766520746f20746865207a65726f20616464726560008201527f7373000000000000000000000000000000000000000000000000000000000000602082015250565b7f45524332303a20696e73756666696369656e7420616c6c6f77616e6365000000600082015250565b7f45524332303a207472616e7366657220616d6f756e742065786365656473206260008201527f616c616e63650000000000000000000000000000000000000000000000000000602082015250565b7f5f616d6f756e742073686f756c642062652067726561746572207468616e207a60008201527f65726f0000000000000000000000000000000000000000000000000000000000602082015250565b7f45524332303a206275726e2066726f6d20746865207a65726f2061646472657360008201527f7300000000000000000000000000000000000000000000000000000000000000602082015250565b7f696e73756666696369656e74206f757470757420616d6f756e74000000000000600082015250565b7f45524332303a207472616e736665722066726f6d20746865207a65726f20616460008201527f6472657373000000000000000000000000000000000000000000000000000000602082015250565b7f45524332303a20617070726f76652066726f6d20746865207a65726f2061646460008201527f7265737300000000000000000000000000000000000000000000000000000000602082015250565b7f696e76616c696420726573657276657300000000000000000000000000000000600082015250565b7f45524332303a2064656372656173656420616c6c6f77616e63652062656c6f7760008201527f207a65726f000000000000000000000000000000000000000000000000000000602082015250565b7f45524332303a206d696e7420746f20746865207a65726f206164647265737300600082015250565b61266081612145565b811461266b57600080fd5b50565b61267781612157565b811461268257600080fd5b50565b61268e81612183565b811461269957600080fd5b5056fea2646970667358221220dc117dca035c797d06ea370d0d35aad2fc953b98b8bac7293af80d87b5a3117c64736f6c63430008040033",
  "linkReferences": {},
  "deployedLinkReferences": {}
}